:020000040800F2
:10000000B80800209D010008732500081921000888
:100010007125000809070008B53600080000000037
:100020000000000000000000000000002F2E00086B
:10003000C907000800000000C52A0008312E00088A
:10004000B7010008B7010008B7010008B7010008B0
:10005000B7010008B7010008B7010008B7010008A0
:10006000B7010008B7010008B7010008B701000890
:10007000B7010008B7010008B7010008B701000880
:100080000D070008B7010008B7010008B701000814
:10009000B7010008B7010008B7010008B701000860
:1000A000B7010008292F0008B7010008B7010008B0
:1000B000352F0008412F0008B7010008B7010008DC
:1000C000B7010008B7010008B7010008B701000830
:1000D000B7010008B7010008A9360008B7010008F9
:1000E000B7010008B7010008B7010008B701000810
:1000F000B7010008B7010008B7010008B701000800
:10010000B7010008D52A0008B7010008B7010008A8
:10011000B7010008B7010008B7010008B7010008DF
:10012000B7010008B7010008B70100081907000867
:10013000B70100080000000000000000B70100083F
:10014000B7010008B7010008B7010008B7010008AF
:10015000B7010008B7010008B7010008B70100089F
:10016000B7010008B7010008B7010008B70100088F
:10017000B7010008B70100080000000000000000FF
:10018000B7010008B7010008DFF80CD000F09AFAB8
:1001900000480047953A0008B80800200648804704
:1001A00006480047FEE7FEE7FEE7FEE7FEE7FEE75C
:1001B000FEE7FEE7FEE7FEE7E12E00088901000802
:1001C000F0B480EA0102D40F4200B2EB410F02D238
:1001D0000246084611464A0042D0C30DDDB2C1F3C3
:1001E000C752AD1A202D35DAC1F3160141F40002D1
:1001F00004B15242C5F1200602FA06F12A41104428
:10020000B3EBD05F23D0C4B1012DA0EBC35009DC08
:10021000F0BC4FF0004202EAC352DBB200F500002E
:1002200000F0C4B9400000F1807000EBC350A0F1B1
:10023000807040EAD170490009E0490841EAC07184
:10024000A0EBC35000F50000400800EBC350F0BC29
:1002500000F0A3B96142012202EB4101001BF6E765
:10026000F0BC704781F00041AAE780F00040A7E7AA
:1002700080EA010210B502F00043400022D04A009B
:100280001FD0010E01EB1261C0F35600C2F35602FB
:1002900040F4000042F40002A0FB022000047F3979
:1002A000140400D0401C50EA124001D44000491E02
:1002B000C2B20C0604EBD010401C4008802A02D0C9
:1002C00003E0002010BD20F00100002900DA00202A
:1002D000184310BD30B480EA010202F0004530F04E
:1002E000004221F0004013D090B1C30DD40DC2F3F1
:1002F0001601C0F31600E41A41F4000140F40002B4
:100300007D34914201D3641C00E04900002C02DAE4
:1003100030BC002070474FF400000023914201D30D
:10032000891A034340084FEA4101F7D151B1914284
:1003300002D14FF0004105E002D24FF0010101E08F
:100340006FF0010103EBC450284430BC00F025B924
:10035000420005D0C0F3C7525242914201DC002056
:10036000704700EBC15070472DE9FE4F804681EA8F
:100370000300C00F0C46009021F0004123F000451F
:10038000B8EB0200A94105D24046214690461C46E2
:100390000B46024623F00040104347D0270DC7F319
:1003A0000A00C3F30A510290401A019040286BDA08
:1003B000C3F3130040F4801B0098924620B1002341
:1003C000D2EB030A63EB0B0B01985946C0F14002D4
:1003D000504600F0C1F806460D4650465946019A6F
:1003E00000F0C9F810EB08006141002487EA1152BF
:1003F00084EAE7731A4340D0009A62B3019A012A53
:100400004FEA075215DC001B61EB02014FF000427E
:1004100002EA0752CDE90042001C41F58011324644
:100420002B4600F000F903B0BDE8F08F40462146AE
:10043000F9E7001B61EB0201001C41F58013001875
:100440005B412018A2F5001747EB030140EAD57085
:10045000B6196D4111E06D084FEA360645EAC075E0
:100460004FEA0752001B61EB0201001C41F58011AD
:1004700049084FEA30000019514132462B4603B07B
:10048000BDE8F04F00F0C0B8009801224000002302
:10049000D0EB020263EBE073009821464FEAE07470
:1004A000B8EB000061EB0401E9E783F000435BE790
:1004B00081F0004158E7C10F80EAE0700844CA07A4
:1004C0009623002100F072B800F0004220F00040B6
:1004D000C10DC0F3160040F400007F2901DA0020AE
:1004E0007047962903DCC1F19601C84001E09639B6
:1004F0008840002AF4D04042704700F0004230F0BB
:1005000000400AD0C10D01F56071C0F3160042EA47
:100510000151C2084007114370470020014670474F
:1005200001F0004330B421F0004150EA010206D04E
:100530000A0DA2F56072C1F31301002A02DC30BC7F
:1005400000207047440F44EAC104C100E01830BCE9
:1005500000EBC25000F021B8202A04DB203A00FA58
:1005600002F1002070479140C2F1200320FA03F30A
:10057000194390407047202A06DBCB17203A41FAF6
:1005800002F043EAE07306E041FA02F3D040C2F120
:10059000200291400843194670470029A8BF7047C0
:1005A000401C490008BF20F00100704710B4B0FAA9
:1005B00080FC00FA0CF050EA010404BF10BC704744
:1005C00049B1CCF1200421FA04F411FA0CF118BF5E
:1005D000012121430843A3EB0C01CB1D4FEA00612D
:1005E0004FEA102042BF002010BC704700EBC35000
:1005F00010440029A4BF10BC7047401C490008BF2C
:1006000020F0010010BC704710B5141E73F10004F7
:1006100008DA401C41F1000192185B411A4301D1F4
:1006200020F0010010BD2DE9F04D92469B4611B11E
:10063000B1FA81F202E0B0FA80F220329046FFF780
:100640008BFF04460F4640EA0A0041EA0B0153467D
:100650005A46084313D0114653EA010019D0C8F195
:100660004002504600F040F805460E4650465946B6
:100670004246FFF771FF084305D0012004E0204601
:100680003946BDE8F08D0020054346EAE0762C436C
:1006900037430A986305E40AA0EB08000022FD0A2C
:1006A00044EA47540A3002D500200146E9E7010533
:1006B00010196941DDE9084500196941BDE8F04DAF
:1006C000A2E70000064C074D06E0E06840F0010399
:1006D00094E8070098471034AC42F6D3FFF758FD72
:1006E0000C3C00082C3C0008202A04DB203A21FAAC
:1006F00002F00021704721FA02F3D040C2F120023B
:100700009140084319467047FEE70000014800F099
:100710006FB8000050030020014800F069B80000E5
:100720005C01002001681823CAB2103AB2FBF3F250
:10073000054B6FF30901032A9B5CC36500D9091DB2
:100740008165084670470000F83B000810B5014677
:1007500000208B698A6A4FF0C07453B1B3F5005F13
:1007600015D072B1012A0CD0022A0AD0032A09D16D
:1007700004E01AB1012A06D0022A03D1C96AC901CC
:1007800000D5012010BDC96AA142FAD010BD002ACF
:10079000F7D0012AF2D0022AF3D0032AF3D010BDF9
:1007A00030B50468256825F48025256004686360F9
:1007B0008368402B036803D099600068C26030BD35
:1007C0009A600068C16030BD704790F8351002290A
:1007D00003D08021416501207047052180F8351044
:1007E0000068016821F001010160002070470000ED
:1007F0002DE9F84304464FF00008CDF80080644826
:100800004FF41651A56D0068B0FBF1F72E6894F80F
:100810005C10082000FA01F131420FD021680A680B
:1008200052070BD50A6822F004020A6094F85C10A3
:100830008840A860606D40F00100606594F85C102D
:1008400054488840304208D021684969090604D5D7
:10085000A860606D40F0020060654E4894F85C103E
:10086000C01C8840304208D021680968890704D537
:10087000A860606D40F00400606594F85C10102082
:100880008840304218D021680968090714D5A8604B
:1008900020680168490304D50068000308D5A16CED
:1008A00007E00168C90503D4016821F0080101606F
:1008B000216C09B12046884794F85C1020208840BC
:1008C00030424FF0010631D021680968C9062DD5A4
:1008D000A86094F8350005282068016806D049030F
:1008E00047D5006800031DD4616C1CE021F016019F
:1008F00001602068416921F080014161206C08B9E4
:10090000A06C20B12068016821F00801016094F812
:100910005C103F208840A86084F8348084F83560FB
:10092000216D1FE0E16B09B120468847606D00280A
:100930002BD0606DC00714D0052084F835002068E6
:10094000016821F0010101600098401C0090B8424C
:1009500003D820680068C007F6D184F8348084F892
:100960003560E16C002910D001B02046BDE8F043AD
:1009700008470168C905D5D4016821F0100101605C
:1009800084F8348084F83560CCE7BDE8F883000053
:1009900000000020010080002DE9F041044600F035
:1009A0007FF906465CB1002584F83450022084F8B3
:1009B00035002068016821F0010101600DE001208F
:1009C000BDE8F08100F06CF9801B052805D92020D6
:1009D0006065032084F83500F2E720680068C007EE
:1009E000F0D12268116820480140D4E9010318437E
:1009F000D4E903363343184363691843A3691843A2
:100A0000E3691843236A18430843616A042903D140
:100A1000D4E90B1319430843106020684069666AE3
:100A200020F0070130460E43012704280CD1A06AAC
:100A30000643E06A40B12046FFF788FE20B140201F
:100A4000606584F83570BAE7206846612046FFF794
:100A500069FE94F85C203F2191408160656584F8CF
:100A600035700020ACE700003F8010F02DE9F04128
:100A70000446866D90F83400002501280DD0012031
:100A800084F8340094F835700020012F07D084F8E2
:100A9000340002252846BDE8F0810220FBE702274A
:100AA00084F8357060652046FFF77AFE94F85C1094
:100AB0003F208840B0602068016841F01601016065
:100AC0002068416941F080014161206C20B12068BB
:100AD000016841F0080101602068016841F00101EE
:100AE0000160D7E72DE9F84FDFF87CB100224FF025
:100AF00001084FF0030A4FF00F090BF1040E00BF7D
:100B00000B6808FA02F42340A3426ED14D68022D0F
:100B100001D0122D0ED1D50800EB850CDCF8205049
:100B20005607F70E09FA07F6B5430E69BE402E4385
:100B3000CCF82060066855000F790AFA05FC07F02A
:100B4000030726EA0C06AF40374307604E68012EC4
:100B500005D0022E03D0112E01D0122E0ED18668A0
:100B6000CF6826EA0C06AF40374387604668A64345
:100B70000C79C4F30014944034434460C6688C6814
:100B800026EA0C06AC403443C4604C68E40065D5EA
:100B9000364C256845F480452560246822F003051D
:100BA00004F480440094324C2E19D6F80848950776
:100BB0002F0F09FA07F5AC432E4DA84201D10025AD
:100BC00024E02D4DA84201D101251FE02B4DA84264
:100BD00001D102251AE02A4DA84201D1032515E0D2
:100BE000284DA84202D1042510E037E0264DA84246
:100BF00001D105250AE0254DA84201D1062505E0D1
:100C0000234DA84201D1072500E00825BD4025431A
:100C1000C6F80858DBF800405D464E689C43F60372
:100C200000D51C432C60DEF8004075464E689C439E
:100C3000B60300D51C432C600B4D08352C684E685C
:100C40009C43F60200D51C432C60074D0C352C68E4
:100C50004E689C43B60200D51C432C60521C102ADF
:100C6000FFF44EAFBDE8F88F003C0140443802402D
:100C70000030014000000240000402400008024031
:100C8000000C024000100240001402400018024014
:100C9000001C02400AB1816170470904FBE70000B3
:100CA0000148006870470000040000200248016805
:100CB000491C016070470000040000200B4810B57B
:100CC000016841F400710160016841F480610160D4
:100CD000016841F480710160032000F075F8002084
:100CE00000F006F800F018F8002010BD003C0240AB
:100CF00010B5044607484FF47A710068B0FBF1F074
:100D000000F083FD00222146501E00F03DF8002037
:100D100010BD00000000002010B5052000F054F8C0
:100D2000002211466FF00B0000F02EF80022114651
:100D30006FF00A0000F028F8002211466FF0090059
:100D400000F022F800221146501F00F01DF800228A
:100D50001146101F00F018F800221146901E00F0F6
:100D600013F80022BDE810401146501E00F00CB8E8
:100D700000F01F02012191404009800000F1E020B5
:100D8000C0F8001170470000F0B40E4B1B680C4611
:100D9000C3F30223C3F10705042D00D90425191D4F
:100DA000072901D2002300E0DB1E012606FA05F127
:100DB000491E214099409E40761E16403143F0BCAA
:100DC00001F0BFBC0CED00E0064900F00702086826
:100DD0004FF6FF03184040EA0220034A1043086020
:100DE000704700000CED00E00000FA052DE9F04727
:100DF000DFF8649105460F46D9F8000000F00F01B6
:100E0000F8B28046B94208D2014689F80010D9F8F4
:100E1000000000F00F00B84274D128784F4C8007D2
:100E200005D52068A96820F0F000084320602878E4
:100E3000C00759D049496868083901281AD00228E2
:100E40001BD0032819D00968890700295ADA2168BC
:100E500021F0030101432160FFF722FF6968064684
:100E600041F28830012911D002291DD00329824680
:100E700027D035E009688903E7E709688901E4E7D5
:100E8000FFF70EFF811B514501D926E082462068FD
:100E9000C0F381000128F3D126E000BFFFF700FF77
:100EA000811B514501D918E082462068C0F38100BA
:100EB0000228F3D118E000BFFFF7F2FE811B514575
:100EC0000BD82068C0F381000328F5D10CE000BFE7
:100ED000FFF7E6FE811B514502D90320BDE8F087EC
:100EE000206810F00C0FF3D1D9F80010484601F03B
:100EF0000F01B94208D980F80080006800F00F00A7
:100F0000B84201D00120E9E72878400705D52068DC
:100F1000E96820F4E050084320602878000706D5EF
:100F20002068296920F4604040EAC100206000F098
:100F300051F82168F02292FAA2F201F0F001B2FA1F
:100F400082F2D140064A515CC84006490860002040
:100F5000FFF7CEFE0020C1E7003C02400838024007
:100F6000E03B0008000000200148006870470000D6
:100F70000000002008480949006809684FF4E05261
:100F800092FAA2F201F4E051B2FA82F2D140044A9C
:100F9000515CC84070470000000000200838024043
:100FA000F03B000808480949006809684FF46042AE
:100FB00092FAA2F201F46041B2FA82F2D140044AFC
:100FC000515CC84070470000000000200838024013
:100FD000F03B000830B51948006810F00C011848C3
:100FE00012D0441004290ED008290DD11349091F2D
:100FF0000A6802F03F030A68550247F6C07204D53A
:10100000B4FBF3F003E0204630BDB0FBF3F00B6817
:101010000968134092FAA2F2B2FA82F2D34058431E
:101020004FF4403292FAA2F201F44031B2FA82F265
:10103000D140491C4900B0FBF1F030BD08380240F6
:101040000024F4002DE9F84F0546DFF8FC92007803
:10105000A9F1040BC007ABF1040449D0D9F8001082
:101060004846C1F38101012908D00068C0F381001E
:1010700002280AD1DBF80000400206D52068800370
:1010800036D5686800286ED032E06868B0F5803FD9
:1010900010D0B0F5A02F206810D020F48030206050
:1010A000206820F4802020606868A0B1FFF7F8FD78
:1010B00006460CE0206840F48030F4E740F48020DD
:1010C0002060F7E7FFF7ECFD801B642871D82068EB
:1010D0008003F7D50CE0FFF7E3FD064605E000BF0F
:1010E000FFF7DEFD801B6428F0D820688003F7D46A
:1010F0002878964F80074FF0010A4FF0000841D53D
:10110000D9F80010484611F00C0F08D00068C0F361
:10111000810002280AD1DBF80000400206D42068D2
:10112000800713D5E86801281DD10FE0E868D8B121
:10113000C7F800A0FFF7B4FD064604E0FFF7B0FDD6
:10114000801B0228C2D820688007F7D52068F822C3
:1011500092FAA2F22969B2FA82F220F0F8009140E4
:10116000084320600EE0ECE0C7F80080FFF798FD30
:10117000064604E0FFF794FD801B022819D820687A
:101180008007F7D42878000724D57148696989B1A8
:10119000C0F800A0FFF784FD064604E0FFF780FDDD
:1011A000801B022805D868486C3000688007F5D598
:1011B00010E07AE0C0F80080FFF772FD064604E018
:1011C000FFF76EFD801B02286FD85F486C30006807
:1011D0008007F5D42878400753D55B48383001683C
:1011E00041F080510160006800F080500090594843
:1011F000016841F480710160FFF752FD064604E08A
:10120000FFF74EFD801B02284FD852480068C005EA
:10121000F6D54D4EA868683601280FD005283068ED
:1012200010D020F001003060306820F00400306001
:10123000A868B8B1FFF734FD00900FE0306840F0C7
:101240000100F4E740F004003060F7E7FFF728FD05
:101250000099411A41F2883081426AD8306880078B
:10126000F4D50EE0FFF71CFD009007E0FFF718FD36
:101270000099411A41F2883081425AD8306880077B
:10128000F4D4A869E8B3D9F80010C1F381010229A8
:1012900057D00228C7F8608003D0FFF701FD05464C
:1012A0004AE0FFF7FDFC064605E042E0FFF7F8FCE8
:1012B000801B02283DD820688001F7D4D5E90701BA
:1012C000084347F6C07292FAA2F2696AB2FA82F251
:1012D0009140AA6A4FF0FF3303EB52024FF44033C0
:1012E00093FAA3F3B3FA83F39A40114308434FF000
:1012F000706292FAA2F2E96AB2FA82F2914008436D
:1013000000E01CE0CBF80000C7F860A0FFF7C8FCC5
:10131000054604E0FFF7C4FC401B022809D82068FA
:101320008001F7D50BE000BFFFF7BAFC401B022895
:1013300002D90320BDE8F88F20688001F4D4002092
:10134000F8E70120F6E700000838024000004742B5
:10135000800E4742007000407047704770B50446E9
:10136000B0F8500000250104206801F0D1FB18B14D
:10137000A16B0143A16304E00021206801F0A3FBFD
:101380000546C5F3432070BD70B504460068416B47
:101390004FF00105CA0540F23A3149D52A0282636D
:1013A0002068C26B8A43C263206B0007206B22D582
:1013B000800702D4206B800609D5206801F0C2FBAB
:1013C00028B1A16B0143A1632046FFF7C6FF216846
:1013D00040F2FF50886384F83450206BC00702D17C
:1013E000206B800703D5204600F0AEF870BD204684
:1013F00000F0ABF870BD0006FCD5206B800609D567
:10140000206801F09FFB28B1A16B0143A163204636
:10141000FFF7A3FF206BC007ECD1206B8007E9D456
:101420002068C16A21F00801C16284F83450DEE707
:10143000426B520410D54FF480418163266A002527
:1014400006EB8501206801F05EFB6D1C082DF7D3CB
:10145000206A2030206270BD426B120410D54FF418
:1014600000418163A66A0025206801F039FB46F837
:1014700025006D1C082DF7D3A06A2030A06270BD36
:10148000426B40F23A231A42F9D0426B920703D5DD
:10149000A26B42F00202A263426B120703D5A26B59
:1014A00042F00802A263426B920603D5A26B42F09F
:1014B0002002A263426BD20603D5A26B42F0100257
:1014C000A263426B920503D5A26B42F00802A263AD
:1014D00040F2FF7282632068C26B8A43C263206B52
:1014E000000623D5206C58B115490165206CFFF723
:1014F0006CF90028C3D0206CBDE8704001F0EEBB51
:10150000E06B58B10F490165E06BFFF75EF9002809
:10151000B5D0E06BBDE8704001F0BCBB0020A0631B
:1015200084F834502046FFF717FF70BD206B00078A
:10153000FBD584F834502046FFF70FFF70BD000044
:10154000DD2C0008952C00087047704770B504002A
:1015500005D00025A56294F8510010B106E00120E5
:1015600070BD84F85050204600F030F8022084F816
:1015700051002068016821F040010160D4E90101B7
:101580000843D4E903121143084361690843218BDE
:1015900001F400710843E1690843216A0843A16A24
:1015A000084321680860A069042101EA1040616ACB
:1015B0000843216848602068C16921F40061C16165
:1015C0006565012084F85100002070BD00B50068F9
:1015D0000E4987B0884217D10D480021026842F4B5
:1015E00080420260006800F4804005904FF4604043
:1015F00000900220CDE90101032003900520049012
:1016000069460448FFF76EFA07B000BD0038004095
:1016100040380240000402402DE9F84F044690F89B
:10162000500000260A9F9A4693460D464FF0010847
:1016300001280ED0012084F85000FFF731FB8146CD
:1016400094F85100616801280CD0B1F5827F07D170
:1016500002E00220BDE8F88FA16809B9042801D092
:101660000226BDE055B1BBF1000F07D0BAF1000F63
:1016700004D094F85100012802D004E00126AFE024
:10168000052084F8510000206065C4F838B0A4F843
:101690003EA0A4F83CA02563A4F836A0A4F834A08A
:1016A0002064606420680168490603D4016841F041
:1016B00040010160E068B0F5006F606804D0E8B3F5
:1016C000E08E01283BD06AE010B1E08E01282ED1D7
:1016D000216835F8020BC860E08E401EE08626E0E7
:1016E000B8F1000F0DD0E08E58B1206881688907ED
:1016F00007D535F8021BC160E08E401EE0864FF032
:101700000008E08F58B120688168C90707D0C06819
:101710002BF8020BE08F401EE0874FF00108781C89
:1017200005D0FFF7BDFAA0EB0900B84246D2E08E23
:101730000028D5D1E08F0028D2D136E0FFE721681C
:1017400015F8010B0873E08E401EE08627E000BF0D
:10175000B8F1000F0DD0E08E58B12068816889077C
:1017600007D515F8011B0173E08E401EE0864FF08F
:101770000008E08F58B120688168C90707D0C068A9
:101780000BF8010BE08F401EE0874FF00108781C3A
:1017900005D0FFF785FAA0EB0900B8420ED2E08E23
:1017A0000028D5D1E08F0028D2D13B46012202216A
:1017B0002046CDF8009001F0EFFA08B103260FE0C3
:1017C0004A463946204601F0D7FA18B101262020B2
:1017D000606505E0A06818B92068C168806800905D
:1017E000012084F85100002084F85000304631E791
:1017F0004FF0E0210428086903D020F004000861BC
:10180000704740F00400FAE7704710B5401EB0F191
:10181000807F01D3012010BD4FF0E02460610F21D3
:10182000601700F08EFF0020A061072020610020DB
:1018300010BD10B5FFF7E8FF10BD7047704730B519
:1018400090F83820012A20D0012280F83820022385
:1018500080F8393003685C6824F070045C600368C9
:101860005C680D682C435C6003689C6824F080040D
:101870009C6003689C6849680C439C6080F8392030
:10188000002180F83810084630BD022030BD10B568
:10189000040003D094F8390010B107E0012010BD16
:1018A000002084F83800204600F00CF8022084F86C
:1018B0003900211D206801F06BFB012084F83900FC
:1018C000002010BD08B501681E4881420FD11E4896
:1018D000016841F0010101600068022200F001008E
:1018E000009001211920FFF74FFA192015E0164842
:1018F000001FB1F1804F14D0144A914220D10168E9
:1019000041F0020101600068002200F00200009036
:1019100001211D20FFF738FA1D20BDE80840FFF720
:1019200027BA016841F0010101600068012200F05E
:101930000100009011461C20FFF726FA1C20ECE75E
:1019400008BD00000000014044380240000400408F
:101950000168CA6842F00102CA600068016841F08B
:10196000010101600020704770B5044690F838000E
:10197000012817D0012584F83850022084F8390056
:101980002068826822F0770222F47F428260086831
:10199000502837D00DDC202859D005DC88B310281A
:1019A00041D151E0022070BD302853D040283AD1B7
:1019B0003FE060282ED070280BD0B0F5805F03D0B8
:1019C000B0F5005F2FD110E02068816821F0070199
:1019D00015E0CB68D1E90121206801F044FB2168C2
:1019E000886840F0770088601DE0CB68D1E901216C
:1019F000206801F038FB2068816841F480418160F3
:101A000011E01EE0CA684968206801F0F5FB50212A
:101A1000206806E0CA684968206801F0FEFB602182
:101A2000206801F02AFB84F83950002084F838003F
:101A300070BDCA684968206801F0DEFB402120685B
:101A4000EFE700212068ECE710212068E9E720217A
:101A50002068E6E730212068E3E7704770B5044668
:101A6000006801694FF00005C943890715D4C168B2
:101A7000C943890711D4E91E01610120207620683D
:101A800080698007204602D0FFF7E7FF04E000F0FE
:101A9000B3F8204600F048F9257620680169C9436B
:101AA000490717D4C168C943490713D46FF004012B
:101AB0000161022020762068806910F4407F204672
:101AC00002D0FFF7CAFF04E000F096F8204600F0CD
:101AD0002BF9257620680169C943090716D4C16826
:101AE000C943090712D46FF0080101610420207670
:101AF0002068C0698007204602D0FFF7AEFF04E0EF
:101B000000F07AF8204600F00FF925762068016988
:101B1000C943C90617D4C168C943C90613D46FF0B5
:101B200010010161082020762068C06910F4407F10
:101B3000204602D0FFF791FF04E000F05DF8204658
:101B400000F0F2F8257620680169C943C90708D179
:101B5000C168C943C90704D1891E0161204600F04C
:101B600001F920680169C943090609D4C168C9435C
:101B7000090605D46FF0800101612046FFF75DFE84
:101B800020680169C943490609D4C168C9434906A7
:101B900005D46FF040010161204600F02FF9206864
:101BA0000169C94389060BD4C168C943890607D4B2
:101BB0006FF0200101612046BDE87040FFF73EBE96
:101BC00070BD000000B50068094985B088420CD19D
:101BD0004FF47070009002200021CDE90101CDE9A1
:101BE000031069460348FEF77DFF05B000BD000005
:101BF0000008004000040240704770B5044690F8A9
:101C000038000D4601280DD0012684F838600220E6
:101C100084F8390042B1042A18D0082A2AD00C2AA4
:101C20004DD139E0022070BD206801F02FFA206804
:101C3000816941F0080181612068816921F0040116
:101C40008161206881692A69114311E0206801F0EF
:101C500049FA2068816941F40061816120688169E5
:101C600021F480618161206881692A6941EA022149
:101C7000816124E0206801F067FA2068C16941F0C1
:101C80000801C1612068C16921F00401C1612068B7
:101C9000C1692A69114311E0206801F085FA2068C2
:101CA000C16941F40061C1612068C16921F48061AA
:101CB000C1612068C1692A6941EA0221C16184F8D1
:101CC0003960002084F8380070BD10B5040003D0DE
:101CD00094F8390010B107E0012010BD002084F80D
:101CE0003800204600F00CF8022084F83900211D4D
:101CF000206801F04DF9012084F83900002010BD62
:101D000008B500680649884208D10648016841F0D4
:101D100004010160006800F00400009008BD0000AC
:101D200000080040403802407047000010B50446EB
:101D30000068012201F08CF908492068884202D02D
:101D40000749884203D1416C41F400414164206855
:101D5000016841F001010160002010BD0000014058
:101D60000004014070B500682049884212D001216A
:101D70001F4C4FF47A73B0F1804F0CD01D4A904243
:101D800008D122891C48012A26D0462A23D09A420B
:101D900029D1218170BDE088401C80B20A22B0FBAD
:101DA000F2F5E08002FB1502217002B96170322267
:101DB000B0FBF2F502FB150202B9A1706422B0FB80
:101DC000F2F502FB150202B9E1709842E2D12171ED
:101DD0000020E08070BD00221021FEF75BFF20890B
:101DE000401C208170BD521C228170BD000001404A
:101DF000300000200004004000000240704770479F
:101E000070B5026804461068D168536910F00F0F6E
:101E100051D003F0010501F4907635435DD0C2073F
:101E200005D0CA0503D5E26B42F00102E263420726
:101E300005D5DA0703D0E26B42F00202E2638207C3
:101E400005D5DA0703D0E26B42F00402E263020731
:101E500005D5DA0703D0E26B42F00802E263E26BD9
:101E6000002A34D0800604D5880602D5204601F029
:101E70004DFA20684069E16BC0F3801001F0080161
:101E80000143204624D001F02AFA2068416949061E
:101E90001AD5416921F040014161606BA0B11B4935
:101EA0000165606BFEF791FC002810D0606B016D3E
:101EB000BDE87040084783060FD58B060DD5204638
:101EC000BDE8704001F022BA2046FFF798FF70BDD0
:101ED000FFF795FF0020E06370BD030606D50B06F3
:101EE00004D52046BDE8704001F0ACBB4006F3D5F8
:101EF0004806F1D5D168204621F04001D16020216B
:101F000084F8391000F007F970BD00003F32000876
:101F100070B5040004D094F83900002510B106E033
:101F2000012070BD84F83850204600F023F82420AA
:101F300084F839002068C16821F40051C16020464E
:101F400001F02AFA2068016921F4904101612068BA
:101F5000416921F02A0141612068C16841F40051C2
:101F6000C160E563202084F8390084F83A0000203D
:101F700070BD0000F0B506460068DFF8B0C000256F
:101F80000221012203230724294F87B0604511D184
:101F90002848056845F010050560006800F010004D
:101FA000059058028DE81F0069463846FEF79AFDF5
:101FB00007B0F0BDDFF880C06045F9D11D48001FB3
:101FC000D0F800C04CF4003CC0F800C0006800F439
:101FD000003005900C208DE81F0069463846FEF75A
:101FE00081FD174C154820604FF00060C4E90105E1
:101FF0004014C4E9035065614FF44030A561C4E961
:10200000075020466562FEF7C7FC18B1A6210DA057
:1020100001F08EFB7463012200212620A663FEF7E7
:10202000B3FE2620FEF7A4FEC2E700000010014028
:1020300000000240443802400044004088600240F2
:10204000500300202E2E2F5372632F75736172740C
:102050002E630000F8B5044690F83A0020283CD1E1
:10206000C1B3BAB394F83800012836D0012084F8FF
:102070003800A162A2850025E563222084F83A0099
:10208000636B1748D863636B16481864636B164814
:10209000D864606B134605650846666B2168024686
:1020A0003046091DFEF7E2FC206801684168009196
:1020B00084F83850C16841F48071C160206841697A
:1020C00041F0010141612068416941F040014161F5
:1020D0000020F8BDFFE70120FBE70220F9E7000040
:1020E00099320008D53200084F32000810B5074A6F
:1020F0000168914208D10B220549FFF7ABFFBDE80B
:102100001040034801F096BB10BD000000440040A1
:102110001004002070477047FEE70000114808B522
:10212000016841F480010160016801F480010091BF
:10213000016841F4001101600068022200F40010FF
:10214000009000211020FEF71FFE1020FEF710FE69
:10215000032202213B20FEF717FEBDE808403B208A
:10216000FEF706BE303802402DE9F043314887B013
:102170000025016841F004010160016801F00401DB
:102180000591016841F080010160016801F0800162
:102190000591016841F001010160016801F0010150
:1021A0000591016841F002010160016801F002013E
:1021B0000591016841F00801016000681E4F00F0C0
:1021C000080005900022F0213846FEF763FDDFF895
:1021D0006C80012220214046FEF75CFDDFF8609014
:1021E000012211464846FEF755FD0124F020CDE9B5
:1021F00000040226CDE9024669463846FEF772FC25
:102200001020CDE90005694640460295FEF76AFCBC
:1022100020208DE8710069464046FEF763FC01AA64
:10222000009482E8700069464846FEF75BFC07B000
:10223000BDE8F08330380240000002400008024050
:1022400000040240064805490160002141608160A8
:10225000C16001614161022181617047002C014030
:10226000D8000020114810B50F4901604FF4827169
:10227000416000218160C1604FF400720161C0E9DA
:1022800005123822C0E90721416281620721C1623B
:10229000FFF75CF9002805D0BDE81040522104A0EA
:1022A00001F046BA10BD0000003800408000002058
:1022B0002E2E2F5372632F7370692E63000000005F
:1022C00010B5174886B01549016053210024C0E9B4
:1022D00001140A21C0E903144461FFF7D8FA18B1C8
:1022E0004C2110A001F024FA4FF480500090694670
:1022F0000B48FFF739FB18B152210AA001F018FA78
:10230000049404A906480594FFF799FA002803D01D
:10231000592104A001F00CFA06B010BD00000140E4
:10232000BC0100202E2E2F5372632F74696D2E6313
:102330000000000010B5174886B04FF080410160E2
:1023400029210024C0E901144FF47A71C0E9031473
:10235000FFF79DFA18B16A210FA001F0E9F94FF4D7
:102360008050009069460B48FFF7FEFA18B17021C3
:1023700009A001F0DDF9049404A906480594FFF7CB
:102380005EFA002803D0772103A001F0D1F906B04E
:1023900010BD0000F80100202E2E2F5372632F7401
:1023A000696D2E630000000010B5174886B015490E
:1023B000016053210024C0E901144FF47A71C0E98F
:1023C0000314FFF764FA18B1882110A001F0B0F9E6
:1023D0004FF48050009069460B48FFF7C5FA18B1DA
:1023E0008E210AA001F0A4F9049404A906480594DA
:1023F000FFF725FA002803D0952104A001F098F9F1
:1024000006B010BD00040040340200202E2E2F53D1
:1024100072632F74696D2E630000000010B52948A7
:102420008AB02749016053210024C0E9011444F611
:102430001F61C0E90314FFF748FC18B1A62122A0D0
:1024400001F076F9079407A91E480894FFF7F7F9F9
:1024500018B1AD211CA001F06BF96020CDE900049A
:1024600002940022694617480494FFF7C6FB18B18E
:10247000B62115A001F05CF9042269461148FFF766
:10248000BCFB18B1BB2110A001F052F9082269462B
:102490000C48FFF7B2FB18B1C0210BA001F048F9BE
:1024A0000C2269460748FFF7A8FB18B1C52106A012
:1024B00001F03EF90348FFF785FB0AB010BD0000AC
:1024C00000080040700200202E2E2F5372632F74DC
:1024D000696D2E63000000000D4810B50B490160C6
:1024E0004FF4E1314160002181600C22C160C0E9FC
:1024F00004128161C161FFF70BFD002805D0BDE822
:102500001040522103A001F013B910BD001001408A
:10251000D00200202E2E2F5372632F7573617274B8
:102520002E6300000D4810B50B4901604FF4E131F6
:102530004160002181600C22C160C0E90412816108
:10254000C161FFF7E5FC002805D0BDE8104065211A
:1025500003A001F0EDB810BD0044004010030020BE
:102560002E2E2F5372632F75736172742E630000C9
:10257000FEE77047044B08B1012200E00022012170
:102580001846FEF787BB000000040240044B08B168
:10259000012200E0002220211846FEF77BBB00004C
:1025A000000802401CB510A1D1E90001CDE90001ED
:1025B000102000F0C7FB05226946302000F093F898
:1025C00005226946102000F045F8002069460A5CA3
:1025D000A52A03D1401CC0B20528F8D3052801D094
:1025E00001201CBD00201CBDA5A5A5A5A5000000BF
:1025F00010B50020FFF7BEFFBDE810400120FFF737
:10260000C5BF000010B50020FFF7B4FF0522104938
:102610002A2000F068F80121212000F080F8012133
:10262000222000F07CF82821252000F078F82021D5
:10263000312000F074F80F21262000F070F80F21EF
:10264000202000F06CF8BDE810400120FFF792BF99
:10265000053C00082DE9F041044615460F460020D0
:10266000FFF794FF204600F05DFB0646002405E0DE
:10267000FF2000F057FB3855641CE4B2AC42F7D39E
:102680000120FFF783FF3046BDE8F08110B5044616
:102690000020FFF77BFF204600F044FBFF2000F006
:1026A00041FB04460120FFF771FF204610BD70B5C5
:1026B0000546102000F046FB0720FFF7E7FF044621
:1026C0000146272000F02BF860060AD52022294673
:1026D0006120FFF7BFFFFF21E22000F020F800207B
:1026E00070BD012070BD2DE9F041044616460D462F
:1026F0000020FFF74BFF204600F014FB07460024A4
:1027000005E015F8010B00F00DFB641CE4B2B442C7
:10271000F7D30120FFF73AFF3846BDE8F08170B5E6
:1027200004460D460020FFF731FF204600F0FAFA7C
:102730000446284600F0F6FA0120FFF727FF20465E
:1027400070BD0907090E002806DA00F00F0000F13D
:10275000E02080F8141D704700F1E02080F800149C
:10276000704700002DE9F04FCA4E8BB04FF47A75D8
:10277000307840B3C848C94CC0690690E0690699F2
:10278000FDF770FD04F1280738600190616802913F
:1027900001460298FDF76CFDF0610390C048344695
:1027A000DFF800830688DFF800934FF0000A3C2E24
:1027B00013D378680199FDF703FD7860404507DD84
:1027C000C7F804800BE02B461A46284611465CE108
:1027D000484504D9C7F8049001E0C7F804A0AF4801
:1027E0008068009078680099FDF742FD01462062FC
:1027F0000398FDF7E5FCA062A1785FEA010B1AD00F
:10280000AA490968FDF72EFD2061A44800690590DA
:10281000B86801900599FDF72BFDE06209903C2E08
:1028200014D378690199FDF7CBFC7861404508DD48
:10283000C7F814800CE098494968FDF713FDB860AB
:10284000E3E7484504D9C7F8149001E0C7F814A09D
:1028500092484069049078690499FDF709FD206366
:102860000890BBF1000F1ED0A1692069FDF7FAFCAA
:10287000B8618A4880690390884803992830806944
:10288000FDF7F6FC07466063DDE90810FDF798FCEC
:102890003946FDF795FCDFF818B2A063584505DD11
:1028A000C4F838B006E0F9680198DFE7814988424A
:1028B00000D9A16379480699006AFDF7D3FC774FE8
:1028C00001464437386007900298FDF7D1FCE0617B
:1028D00006903C2E0ED378680799FDF771FC78605E
:1028E000404502DDC7F8048006E0484504D9C7F832
:1028F000049001E0C7F804A078680099FDF7B8FCDF
:10290000014620620698FDF75BFCA06261780891A1
:1029100029B161490968FDF7A5FCB86005E0664981
:102920000968FDF79FFCE060B86800900599FDF725
:102930009FFCE06205903C2E0ED378690099FDF76C
:102940003FFC7861404502DDC7F8148006E0484549
:1029500004D9C7F8149001E0C7F814A0DFF83C814F
:1029600078690499FDF784FC814620630898C8B112
:102970006169E068FDF776FCB86148480399443026
:102980008069FDF775FC0746606349460598FDF7C9
:1029900017FC3946FDF714FCE063584505DDC4F823
:1029A0003CB006E0F9680098E4E74249884200D963
:1029B000E1633948C246016AD8F82400FDF752FCA9
:1029C000DFF8D890074609F16009C9F800000299BC
:1029D000FDF74EFCE06180463846D9F81010FDF74F
:1029E00041FCDAF80C10FDF743FC014660624046FA
:1029F000FDF7E6FB2064314801780120C1B1A070E9
:102A00002169A1612E490978B9B16070E0686061FF
:102A1000C9F81070E06BFDF757FD811901F57A7167
:102A200089B24FF4FA62A18091420BD9A2800CE0E6
:102A30001A49019A2831CA60E4E7184800994430DD
:102A4000C160E5E7A94200D2A580301A00F57A708E
:102A500080B2E080904201D9E28002E0A84200D238
:102A6000E5802081904201D9228102E0A84200D273
:102A700025816181914201D9628102E0A94200D29F
:102A8000658163892289E188A0880BB0BDE8F04F99
:102A900001F09AB83C000020AC0200203C04002069
:102AA0003A00002000004843000048C32C000020EA
:102AB0000000FA430000FAC3280000200E000020A6
:102AC0000D000020704708B50844143000900068DD
:102AD00008BD00000148FEF757BC0000D8000020E8
:102AE000D0F8800070470A688260D1E901231A4358
:102AF000D1E903310B43C1681A436FF30B01114352
:102B0000C160002070470968C0F88010002070473D
:102B100010B586B004460D20CDE90010402002908B
:102B2000002003904FF48060049069462046FFF730
:102B3000DAFF41F288320D21204600F01DF806B080
:102B400010BD000010B586B0044600210C20CDE970
:102B500000104020CDE902010001049069462046A2
:102B6000FFF7C1FF034A0C21204600F005F806B02C
:102B700010BD000000E1F505444B10B51B684FF493
:102B8000FA54B3FBF4F353435B1E02D24FF0004000
:102B900010BD426B12F0450FF6D0426B520703D5C1
:102BA00004218163084610BD426BD20702D0012187
:102BB000816303E00269D2B28A4201D0012010BDD4
:102BC00040F2FF5181630021FFF77DFF3049084249
:102BD00001D1002010BD002802DA4FF0007010BDB6
:102BE000410001D5402010BD810001D5802010BDDD
:102BF000C10002D54FF4807010BD010102D54FF421
:102C0000007010BD410102D54FF4806010BDC101BC
:102C100002D54FF4006010BD010202D54FF4805080
:102C200010BD410202D54FF4005010BD810202D503
:102C30004FF4804010BDC10202D54FF4004010BDDA
:102C4000410302D54FF4003010BD810302D54FF48B
:102C5000802010BDC10302D54FF4002010BD010437
:102C600002D54FF4801010BD410402D54FF400107E
:102C700010BD810402D54FF4800010BD000702D5BD
:102C80004FF4000010BD4FF4803010BD0000002054
:102C900008E0FFFD70B5846B0025E06B00B1E563D3
:102CA000206C002816D12046FEF758FBA5630121B1
:102CB00084F83410062801D005280BD12068FFF7CE
:102CC00041FFA16B0843A063A06B0028204602D0FF
:102CD000FEF742FB70BDFEF740FB70BD70B5846B24
:102CE0000025206C00B12564E06B002816D1204639
:102CF000FEF734FBA563012184F83410062801D0C7
:102D000005280BD12068FFF71DFFA16B0843A063C6
:102D1000A06B0028204602D0FEF71EFB70BDFEF718
:102D20001CFB70BD01B582B04FF47A700090012396
:102D300001AA02A90248FEF76FFC9DF804000EBD2F
:102D4000800000200B4910B50A68136823F0400387
:102D500013600A6813684FF6C774234013600A684B
:102D60001368034313600868016841F04001016083
:102D700010BD00008000002038B50B4600920446CC
:102D80000022802100F008F8002804D0606D40F097
:102D900020006065032038BD2DE9F0411D4617462F
:102DA0000E460446DDF8188035E0681C33D02DB19E
:102DB000FDF776FFA0EB0800A8422CD320684168FD
:102DC00021F0E00141606068B0F5827F0BD1A0681E
:102DD000B0F5004F02D0B0F5806F04D120680168D3
:102DE00021F040010160A06AB0F5005F0AD12068BF
:102DF00001684DF6FF72114001602068016841F4DE
:102E000000510160012084F85100002084F8500036
:102E10000320BDE8F0812068806836EA000004D015
:102E20000020B842C1D10020F3E70120F9E7704744
:102E300010B5FDF73BFFBDE81040FEF7FABC0000FF
:102E400030B5254893B00025016841F080510160FC
:102E5000006800F0805011902048016841F48041E2
:102E600001600068022400F480401190012003906A
:102E700010200490009406940820CDE90750A82063
:102E8000CDE9090407200B906846FEF7DBF800B196
:102E9000FEE70CA90F2081E831004FF4A0500F90FD
:102EA0004FF48050109005210CA8FDF79FFF00B152
:102EB000FEE7FEF759F84FF47A71B0FBF1F0FEF738
:102EC000A4FC0420FEF794FC00221146501EFDF7DE
:102ED0005BFF13B030BD000040380240007000407E
:102EE0000D48016841F0010101600B4A00210832E0
:102EF00011600268094B1A400260031D084A1A60FB
:102F0000026822F48022026003480C300160054907
:102F1000580608607047000000380240FFFFF6FEC8
:102F20001030002408ED00E00148FEF797BD0000D6
:102F3000BC0100200148FEF791BD0000F80100200F
:102F40000148FEF78BBD00003402002010B50E4C86
:102F5000012240212046FDF79DFE00210B48FEF78F
:102F6000E5FE04210948FEF7E1FE08210748FEF7C7
:102F7000DDFE0C210548FEF7D9FE20460022BDE803
:102F800010404021FDF786BE000002407002002084
:102F9000F0B50268234B244D244E254F254C4FF0AD
:102FA000804C984209D0604507D0A84205D0B04275
:102FB00003D0B84201D0A04204D122F0700E4A687A
:102FC00042EA0E0298421BD0604519D0A84217D0A1
:102FD000B04215D0B84213D0A04211D0164DA8422D
:102FE0000ED0164DA8420BD0154DA84208D0154D55
:102FF000A84205D0144DA84202D0144DA84203D1D6
:1030000022F44075CA682A4302608A68C2620A686C
:103010008262984201D0A04201D109690163012175
:103020004161F0BD00000140000400400008004084
:10303000000C0040000401400040014000440140F9
:103040000048014000180040001C004000200040E3
:1030500010B50123046A8B409C430462036A8A40D2
:103060001343036210BD10B5846842EA032224F4BE
:103070007F440A432243826010BD826822F07002BE
:103080000A4342F0070181607047000030B5026AD0
:1030900022F001020262026A436884690D6824F02A
:1030A0007304254322F002048A6822430B4CA04299
:1030B00002D00B4CA0420BD122F00804CA6823F4C2
:1030C000407322434C6922F004021C438B69234362
:1030D0004360856149684163026230BD0000014080
:1030E0000004014030B5026A22F010020262026A56
:1030F000436884690D6824F4E64444EA05248D6835
:1031000022F0200242EA05120D4DA84202D00D4DD8
:10311000A8420ED1CD6822F0800242EA05124D6924
:1031200023F4406343EA85038D6922F0400243EAB9
:1031300085034360846149688163026230BD000099
:10314000000001400004014030B5026A22F48072A0
:103150000262036A4268C46923F4007324F07305B1
:103160000C682C438D6843EA05230D4DA84202D01C
:103170000C4DA8420ED1CD6823F4006343EA052329
:103180004D6922F4405242EA05128D6923F48063AE
:1031900042EA05124260C4614968C163036230BDFE
:1031A000000001400004014030B5026A22F4805260
:1031B0000262046A4268C3690D6823F4E64343EA85
:1031C00005238D6824F4005444EA0534084DA842D0
:1031D00002D0084DA84204D14D6922F4804242EA4F
:1031E00085124260C36149680164046230BD000019
:1031F000000001400004014010B5036A046A24F095
:1032000001040462846924F0F00444EA021423F007
:103210000A020A438461026210BD10B5036A23F0FA
:10322000100303628369046A23F4704343EA0232A1
:1032300024F0A00343EA01118261016210BD10B5C0
:10324000806B0021C185C184FEF7D9FD10BD70B52A
:10325000846B2068406994F83910C0F3C0100025D1
:10326000212904D118B1E584204600F046F82068F1
:10327000406994F83A10C0F38010222904D118B1A3
:10328000E585204600F02BF8E06B40F01000E0638D
:103290002046FEF7B4FD70BD10B50146806B09688D
:1032A0000968C90513D40021C1850168CA6822F4E0
:1032B0008072CA6001684A6922F001024A610168AD
:1032C0004A6922F040024A61202180F83A10FEF754
:1032D0000DFF10BD10B5806BFEF71CFF10BD01681F
:1032E000CA6822F49072CA6001684A6922F0010239
:1032F0004A61202180F83A1070470168CA6822F0BC
:10330000C002CA60202180F83910704710B590F8CB
:103310003A10222901D0022010BD8168B1F5805FEA
:1033200011D00169002901681FD0496801F07F03AD
:10333000816A4A1C82620B70C18D491E0904090C06
:10334000C18518D026E00269816A002A02685268A5
:1033500005D0D2B20A80816A491C8162ECE7C2F3CF
:1033600008020A80816A891CF7E74A68816A4B1C57
:1033700083620A70E0E70168CA6822F49072CA604A
:1033800001684A6922F001024A61202180F83A105E
:10339000FEF7ACFE002010BD2DE9F04104460068A8
:1033A000016921F44052E168114301612168C86854
:1033B00049F20C6290432369A268E5691A43636984
:1033C0002B431A430243CA602168486920F44072C3
:1033D000A06910434861E1696425B1F5004F974841
:1033E000974A21684FF032083FD0914201D0814284
:1033F0007CD1FDF7D7FD00EBC00101EB0010616847
:103400008900B0FBF1F6FDF7CDFD00EBC00101EB4B
:10341000001061688900B0FBF1F0B0FBF5F06FF0CF
:103420001801484306EB800108EB0110B0FBF5F0F2
:1034300000F0F006FDF7B6FD00EBC00101EB001057
:1034400061688900B0FBF1F0B0FBF5F006EB001607
:10345000FDF7A8FD00EBC00101EB001061688900D9
:10346000B0FBF1F7FDF79EFDD2E0914201D0814221
:103470003DD1FDF797FD00EBC00101EB0010616845
:103480004900B0FBF1F0B0FBF5F00601FDF78AFD55
:1034900000EBC00101EB001061684900B0FBF1F7DF
:1034A000FDF780FD00EBC00101EB001061684900F1
:1034B000B0FBF1F0B0FBF5F06FF01801484307EBFB
:1034C000800108EBC100B0FBF5F000F0F80006EB5E
:1034D0004006FDF767FD00EBC00101EB00106168DD
:1034E0004900B0FBF1F7FDF75DFD3CE055E0FDF76D
:1034F00041FD00EBC00101EB001061684900B0FB29
:10350000F1F0B0FBF5F00601FDF734FD00EBC00172
:1035100001EB001061684900B0FBF1F7FDF72AFDEF
:1035200000EBC00101EB001061684900B0FBF1F055
:10353000B0FBF5F06FF01801484307EB800108EB92
:10354000C100B0FBF5F000F0F80006EB4006FDF717
:1035500011FD00EBC00101EB001061684900B0FBF8
:10356000F1F7FDF707FD00EBC00101EB001061680A
:103570004900B0FBF1F0B0FBF5F06FF018014843E3
:1035800007EB800108EBC100B0FBF5F000F007008D
:10359000216830448860BDE8F081FDF7EBFC00EB6A
:1035A000C00101EB001061688900B0FBF1F6FDF786
:1035B000E1FC00EBC00101EB001061688900B0FB89
:1035C000F1F0B0FBF5F06FF01801484306EB800115
:1035D00008EB0110B0FBF5F000F0F006FDF7CAFCB7
:1035E00000EBC00101EB001061688900B0FBF1F055
:1035F000B0FBF5F006EB0016FDF7BCFC00EBC001DC
:1036000001EB001061688900B0FBF1F7FDF7B2FC37
:1036100000EBC00101EB001061688900B0FBF1F024
:10362000B0FBF5F06FF01801484307EB800108EBA1
:103630000110B0FBF5F000F00F00A9E70014014005
:103640000010014090F83910212901D00220704764
:103650008168B1F5805F016A0BD04A1C0262026882
:1036600009785160C18C491E0904090CC1840ED02F
:1036700017E009880268C1F3080151600169002957
:10368000016A02D0491C0162ECE7891CFBE7016872
:10369000CA6822F08002CA600068C16841F0400137
:1036A000C1600020704700000148FEF7A9BB000080
:1036B00010030020FEE700000448C17819B1002182
:1036C000C1700120704700207047000030000020CA
:1036D0000448417819B10021417001207047002051
:1036E00070470000300000200448017819B1002123
:1036F000017001207047002070470000300000205A
:103700000448017919B1002101710120704700209E
:1037100070470000300000200448817819B1002172
:1037200081700120704700207047000030000020A9
:10373000FEE702E008C8121F08C1002AFAD170474C
:103740007047002001E001C1121F002AFBD1704721
:103750002DE9F05F0026314DDFF8C490314CDFF8E1
:10376000C88007464FF4FA7BB246B85DF8B1082E20
:103770004DD2DFE806F0040D121D2C37464928888B
:10378000143080B22880584541D9A5F800B03EE0F9
:10379000288860B11438288039E02069FCF7ADFE34
:1037A000224A234BFCF7E0FDFCF7BAFE20612EE035
:1037B0002069FCF7A2FE1D4A1D4BFCF776FEFCF7C4
:1037C000AFFE2061484522D3C4F810A01FE0A069D5
:1037D000FCF793FE154A164BFCF7C6FDFCF7A0FE5E
:1037E000A06114E0A069FCF788FE104A104BFCF7BA
:1037F0005CFEFCF795FEA061484508D3C4F818A00C
:1038000005E088F800A002E0012188F80010761C8D
:10381000F6B2202EA9D3BDE8F09F00003A000020A8
:10382000000080803C040020350000209A9999997E
:103830009999B93F2DE9F05F0178552945D1417833
:103840008B4C8C4E6FF00E07512940D000254FF065
:10385000010A522964D0532937D1B0F90210A1824C
:10386000B0F90420E282B0F9060020838146904638
:103870000846FCF720FEBB463946FCF769FD7E4949
:10388000FCF7F6FC0446B0614046FCF714FE5946CE
:10389000FCF75EFD7849FCF7EBFC0746F061484613
:1038A000FCF709FE5946FCF753FD7349FCF7E0FCB1
:1038B0007249306272488F4206DC8C4204DC7149E6
:1038C0008F4201D88C427BD90570BDE8F09FB0F9DA
:1038D0000210E181B0F90480A4F81080B0F906501C
:1038E00065820846FCF7E7FD3946FCF731FD042107
:1038F000FCF72EFDF0604046FCF7DDFD3946FCF795
:1039000027FD0421FCF724FD30612846FCF7D3FD98
:103910003946FCF71DFD0421FCF71AFD7061D4E760
:10392000B0F902102181B0F904206281B0F90600DB
:10393000A081834690460846FCF7BDFD6FF00E015E
:10394000FCF706FD5049FCF793FC07463060404603
:10395000FCF7B1FD6FF00E01FCF7FAFC4A49FCF7E9
:1039600087FC814670605846FCF7A5FD6FF00E019C
:10397000FCF7EEFC4449FCF77BFC3D4AB060DFF805
:103980000C815078E3780146401CC6B2DFF800B1E4
:10399000D06948F82170B3B12570277858F82710FE
:1039A000FCF70EFC7F1CF9B221700C29F5D35946A7
:1039B000FCF790FCC4E9075066700C2E06D100E0BD
:1039C00053E0657002E066700C2E20D028482F4F1F
:1039D00022798078411C3037CEB247F820905AB314
:1039E0002570E069B846277858F82710FCF7E8FBFF
:1039F0007F1CF9B221700C29F5D35946FCF76AFCFB
:103A0000E5616062A6700C2E89D1A5705DE7257016
:103A1000267858F82610FCF7D3FB761CF1B22170FB
:103A20000C29F5D35946FCF755FCC4E9075084F836
:103A300005A084F803A0C2E7A6700C2EE6D125707D
:103A4000E069267857F82610FCF7BAFB761CF1B22D
:103A500021700C29F5D35946FCF73CFCE561606206
:103A600084F806A084F804A0CFE780F800A02CE733
:103A700008000020AC020020000034430000704227
:103A80003C000020000070C20000FA44B003002097
:103A900000004041FDF712F9FFF7D2F9FEF764FB91
:103AA000FEF73CFBFEF7CEFBFEF70AFCFEF742FCFE
:103AB000FEF77AFCFEF7B2FCFEF70EFDFEF732FDD4
:103AC000FEF7D0FB344C012210212046FDF7E2F82E
:103AD0003248FDF73DFF3248FDF73AFF0B223149EE
:103AE0003148FEF7B7FA012280212046FDF7D2F8CF
:103AF000FEF77EFDFEF756FD0028FBD1FEF782FDA6
:103B0000002280212448FDF7C5F8FFF71FFA4FF483
:103B10007A7B5B461A465846114600F055F8234C0E
:103B2000234E244FDFF89080DFF89090DFF890A0CC
:103B3000002567612562C4E90665C4E9035865622A
:103B4000C4E901A9FFF7D0FDFFF7C2FD40B11D4850
:103B50004079B8B15B461A465846114600F034F831
:103B6000FFF7DAFD48B10F480B30FEF7A0FD60B15A
:103B7000002240210848FDF78DF8FFF79DFDFFF773
:103B8000BFFDD6E7FEF7EEFDEAE706480B30FFF78C
:103B9000DFFD0122EDE7000000000240F8010020F7
:103BA0003402002010040020100300203C040020F8
:103BB0000000A0400AD7A33B6666663F0AD7233CB5
:103BC000000020413000002030B5044C25686863B7
:103BD000206881632068C263036430BD70020020E6
:103BE00000000000000000000102030406070809AD
:103BF0000000000001020304000610160006101663
:103C00003443101001344310100100002C3C000814
:103C1000000000208000000032370008AC3C0008A3
:103C20008000002038080000423700080024F4001B
:103C30000000000000000000000000000000000084
:103C40000000000000000000000000000000000074
:103C50000000000000000000000000000000000064
:103C60000001000001005E010000000000000000F3
:103C70000000000000000000000000000000000044
:103C80000000000000000000000000000000000034
:103C90000000000000000000000000000000000024
:0C3CA00000000000000000000000000018
:040000050800018965
:00000001FF
